{
  "contractName": "SimpleVoting",
  "abi": [
    {
      "inputs": [],
      "payable": false,
      "stateMutability": "nonpayable",
      "type": "constructor"
    },
    {
      "anonymous": false,
      "inputs": [
        {
          "indexed": false,
          "internalType": "uint256",
          "name": "proposalId",
          "type": "uint256"
        }
      ],
      "name": "ProposalRegisteredEvent",
      "type": "event"
    },
    {
      "anonymous": false,
      "inputs": [],
      "name": "ProposalsRegistrationEndedEvent",
      "type": "event"
    },
    {
      "anonymous": false,
      "inputs": [],
      "name": "ProposalsRegistrationStartedEvent",
      "type": "event"
    },
    {
      "anonymous": false,
      "inputs": [
        {
          "indexed": false,
          "internalType": "address",
          "name": "voter",
          "type": "address"
        },
        {
          "indexed": false,
          "internalType": "uint256",
          "name": "proposalId",
          "type": "uint256"
        }
      ],
      "name": "VotedEvent",
      "type": "event"
    },
    {
      "anonymous": false,
      "inputs": [
        {
          "indexed": false,
          "internalType": "address",
          "name": "voterAddress",
          "type": "address"
        }
      ],
      "name": "VoterRegesteredEvent",
      "type": "event"
    },
    {
      "anonymous": false,
      "inputs": [],
      "name": "VotesTailedEvent",
      "type": "event"
    },
    {
      "anonymous": false,
      "inputs": [],
      "name": "VotingSessionEndedEvent",
      "type": "event"
    },
    {
      "anonymous": false,
      "inputs": [],
      "name": "VotingSessionStartedEvent",
      "type": "event"
    },
    {
      "anonymous": false,
      "inputs": [
        {
          "indexed": false,
          "internalType": "enum SimpleVoting.WorkFlowStatus",
          "name": "prevStatus",
          "type": "uint8"
        },
        {
          "indexed": false,
          "internalType": "enum SimpleVoting.WorkFlowStatus",
          "name": "newStatus",
          "type": "uint8"
        }
      ],
      "name": "WorkFlowStatusChangedEvent",
      "type": "event"
    },
    {
      "constant": true,
      "inputs": [],
      "name": "admin",
      "outputs": [
        {
          "internalType": "address payable",
          "name": "",
          "type": "address"
        }
      ],
      "payable": false,
      "stateMutability": "view",
      "type": "function"
    },
    {
      "constant": true,
      "inputs": [
        {
          "internalType": "uint256",
          "name": "",
          "type": "uint256"
        }
      ],
      "name": "proposals",
      "outputs": [
        {
          "internalType": "string",
          "name": "description",
          "type": "string"
        },
        {
          "internalType": "uint256",
          "name": "voteCount",
          "type": "uint256"
        }
      ],
      "payable": false,
      "stateMutability": "view",
      "type": "function"
    },
    {
      "constant": true,
      "inputs": [
        {
          "internalType": "address",
          "name": "",
          "type": "address"
        }
      ],
      "name": "voters",
      "outputs": [
        {
          "internalType": "bool",
          "name": "isRegistered",
          "type": "bool"
        },
        {
          "internalType": "bool",
          "name": "hasVoted",
          "type": "bool"
        },
        {
          "internalType": "int256",
          "name": "votedProposalId",
          "type": "int256"
        }
      ],
      "payable": false,
      "stateMutability": "view",
      "type": "function"
    },
    {
      "constant": true,
      "inputs": [],
      "name": "workFlowStatus",
      "outputs": [
        {
          "internalType": "enum SimpleVoting.WorkFlowStatus",
          "name": "",
          "type": "uint8"
        }
      ],
      "payable": false,
      "stateMutability": "view",
      "type": "function"
    },
    {
      "constant": false,
      "inputs": [
        {
          "internalType": "address",
          "name": "_voterAddress",
          "type": "address"
        }
      ],
      "name": "registerVoter",
      "outputs": [],
      "payable": false,
      "stateMutability": "nonpayable",
      "type": "function"
    },
    {
      "constant": false,
      "inputs": [],
      "name": "startProposalRegistration",
      "outputs": [],
      "payable": false,
      "stateMutability": "nonpayable",
      "type": "function"
    },
    {
      "constant": false,
      "inputs": [
        {
          "internalType": "string",
          "name": "proposalDescription",
          "type": "string"
        }
      ],
      "name": "registerProposal",
      "outputs": [],
      "payable": false,
      "stateMutability": "nonpayable",
      "type": "function"
    },
    {
      "constant": false,
      "inputs": [],
      "name": "endProposalRegistration",
      "outputs": [],
      "payable": false,
      "stateMutability": "nonpayable",
      "type": "function"
    },
    {
      "constant": false,
      "inputs": [],
      "name": "startVotingSession",
      "outputs": [],
      "payable": false,
      "stateMutability": "nonpayable",
      "type": "function"
    },
    {
      "constant": false,
      "inputs": [
        {
          "internalType": "uint256",
          "name": "proposalId",
          "type": "uint256"
        }
      ],
      "name": "vote",
      "outputs": [],
      "payable": false,
      "stateMutability": "nonpayable",
      "type": "function"
    },
    {
      "constant": false,
      "inputs": [],
      "name": "endVotingSession",
      "outputs": [],
      "payable": false,
      "stateMutability": "nonpayable",
      "type": "function"
    },
    {
      "constant": false,
      "inputs": [],
      "name": "tallyVotes",
      "outputs": [],
      "payable": false,
      "stateMutability": "nonpayable",
      "type": "function"
    },
    {
      "constant": true,
      "inputs": [],
      "name": "getNumberOfProposals",
      "outputs": [
        {
          "internalType": "uint256",
          "name": "",
          "type": "uint256"
        }
      ],
      "payable": false,
      "stateMutability": "view",
      "type": "function"
    },
    {
      "constant": true,
      "inputs": [
        {
          "internalType": "uint256",
          "name": "index",
          "type": "uint256"
        }
      ],
      "name": "getProposalDescription",
      "outputs": [
        {
          "internalType": "string",
          "name": "",
          "type": "string"
        }
      ],
      "payable": false,
      "stateMutability": "view",
      "type": "function"
    },
    {
      "constant": true,
      "inputs": [],
      "name": "getWinningProposalId",
      "outputs": [
        {
          "internalType": "uint256",
          "name": "",
          "type": "uint256"
        }
      ],
      "payable": false,
      "stateMutability": "view",
      "type": "function"
    },
    {
      "constant": true,
      "inputs": [],
      "name": "getWinningProposalDescription",
      "outputs": [
        {
          "internalType": "string",
          "name": "",
          "type": "string"
        }
      ],
      "payable": false,
      "stateMutability": "view",
      "type": "function"
    },
    {
      "constant": true,
      "inputs": [],
      "name": "getWinningProposalVoteCounts",
      "outputs": [
        {
          "internalType": "uint256",
          "name": "",
          "type": "uint256"
        }
      ],
      "payable": false,
      "stateMutability": "view",
      "type": "function"
    },
    {
      "constant": true,
      "inputs": [
        {
          "internalType": "address",
          "name": "_voterAddress",
          "type": "address"
        }
      ],
      "name": "isRegisteredVoter",
      "outputs": [
        {
          "internalType": "bool",
          "name": "",
          "type": "bool"
        }
      ],
      "payable": false,
      "stateMutability": "view",
      "type": "function"
    },
    {
      "constant": true,
      "inputs": [
        {
          "internalType": "address",
          "name": "_address",
          "type": "address"
        }
      ],
      "name": "isAdmin",
      "outputs": [
        {
          "internalType": "bool",
          "name": "",
          "type": "bool"
        }
      ],
      "payable": false,
      "stateMutability": "view",
      "type": "function"
    },
    {
      "constant": true,
      "inputs": [],
      "name": "getWorkFlowStatus",
      "outputs": [
        {
          "internalType": "enum SimpleVoting.WorkFlowStatus",
          "name": "",
          "type": "uint8"
        }
      ],
      "payable": false,
      "stateMutability": "view",
      "type": "function"
    }
  ],
  "bytecode": "0x608060405234801561001057600080fd5b50336000806101000a81548173ffffffffffffffffffffffffffffffffffffffff021916908373ffffffffffffffffffffffffffffffffffffffff1602179055506000600360006101000a81548160ff0219169083600581111561007057fe5b021790555061207f806100846000396000f3fe608060405234801561001057600080fd5b506004361061012c5760003560e01c806338db6dd3116100ad578063da36cffe11610071578063da36cffe146105b2578063e81e977b1461060e578063e85a8f2a1461062c578063ee74c67814610636578063f851a440146106405761012c565b806338db6dd31461049e5780635861f1e5146104e2578063a3ec138d1461050e578063a7bfab161461057c578063da01c0df146105865761012c565b806324d7806c116100f457806324d7806c146102dc5780632f95355b1461033857806333809b6c146103f3578063378a21781461041157806337d05ddc1461041b5761012c565b80630121b93f14610131578063013cf08b1461015f5780630f7e28381461020d5780631af8690914610217578063229acb1714610235575b600080fd5b61015d6004803603602081101561014757600080fd5b810190808035906020019092919050505061068a565b005b61018b6004803603602081101561017557600080fd5b81019080803590602001909291905050506109bd565b6040518080602001838152602001828103825284818151815260200191508051906020019080838360005b838110156101d15780820151818401526020810190506101b6565b50505050905090810190601f1680156101fe5780820380516001836020036101000a031916815260200191505b50935050505060405180910390f35b610215610a86565b005b61021f610c66565b6040518082815260200191505060405180910390f35b6102616004803603602081101561024b57600080fd5b8101908080359060200190929190505050610d0b565b6040518080602001828103825283818151815260200191508051906020019080838360005b838110156102a1578082015181840152602081019050610286565b50505050905090810190601f1680156102ce5780820380516001836020036101000a031916815260200191505b509250505060405180910390f35b61031e600480360360208110156102f257600080fd5b81019080803573ffffffffffffffffffffffffffffffffffffffff169060200190929190505050610dcb565b604051808215151515815260200191505060405180910390f35b6103f16004803603602081101561034e57600080fd5b810190808035906020019064010000000081111561036b57600080fd5b82018360208201111561037d57600080fd5b8035906020019184600183028401116401000000008311171561039f57600080fd5b91908080601f016020809104026020016040519081016040528093929190818152602001838380828437600081840152601f19601f820116905080830192505050505050509192919290505050610e24565b005b6103fb610ff6565b6040518082815260200191505060405180910390f35b610419611003565b005b610423611262565b6040518080602001828103825283818151815260200191508051906020019080838360005b83811015610463578082015181840152602081019050610448565b50505050905090810190601f1680156104905780820380516001836020036101000a031916815260200191505b509250505060405180910390f35b6104e0600480360360208110156104b457600080fd5b81019080803573ffffffffffffffffffffffffffffffffffffffff16906020019092919050505061139f565b005b6104ea6116a4565b604051808260058111156104fa57fe5b60ff16815260200191505060405180910390f35b6105506004803603602081101561052457600080fd5b81019080803573ffffffffffffffffffffffffffffffffffffffff1690602001909291905050506116b7565b604051808415151515815260200183151515158152602001828152602001935050505060405180910390f35b6105846116fb565b005b61058e6118da565b6040518082600581111561059e57fe5b60ff16815260200191505060405180910390f35b6105f4600480360360208110156105c857600080fd5b81019080803573ffffffffffffffffffffffffffffffffffffffff1690602001909291905050506118f1565b604051808215151515815260200191505060405180910390f35b61061661194a565b6040518082815260200191505060405180910390f35b6106346119d1565b005b61063e611bb1565b005b610648611d90565b604051808273ffffffffffffffffffffffffffffffffffffffff1673ffffffffffffffffffffffffffffffffffffffff16815260200191505060405180910390f35b600160003373ffffffffffffffffffffffffffffffffffffffff1673ffffffffffffffffffffffffffffffffffffffff16815260200190815260200160002060000160009054906101000a900460ff1661072f576040517f08c379a0000000000000000000000000000000000000000000000000000000008152600401808060200182810382526038815260200180611e996038913960400191505060405180910390fd5b6003600581111561073c57fe5b600360009054906101000a900460ff16600581111561075757fe5b146107ad576040517f08c379a0000000000000000000000000000000000000000000000000000000008152600401808060200182810382526037815260200180611f846037913960400191505060405180910390fd5b60028054905081106107be57600080fd5b600160003373ffffffffffffffffffffffffffffffffffffffff1673ffffffffffffffffffffffffffffffffffffffff16815260200190815260200160002060000160019054906101000a900460ff1615610881576040517f08c379a000000000000000000000000000000000000000000000000000000000815260040180806020018281038252601a8152602001807f416c726561647920566f7465642066726f6d207468697320494400000000000081525060200191505060405180910390fd5b60018060003373ffffffffffffffffffffffffffffffffffffffff1673ffffffffffffffffffffffffffffffffffffffff16815260200190815260200160002060000160016101000a81548160ff02191690831515021790555080600160003373ffffffffffffffffffffffffffffffffffffffff1673ffffffffffffffffffffffffffffffffffffffff1681526020019081526020016000206001018190555060016002828154811061093157fe5b9060005260206000209060020201600101600082825401925050819055507f0902475a854b82199b4f5d6b81327ec4c4ec077ce0356a106ddc2748c5285ed33382604051808373ffffffffffffffffffffffffffffffffffffffff1673ffffffffffffffffffffffffffffffffffffffff1681526020018281526020019250505060405180910390a150565b600281815481106109ca57fe5b9060005260206000209060020201600091509050806000018054600181600116156101000203166002900480601f016020809104026020016040519081016040528092919081815260200182805460018160011615610100020316600290048015610a765780601f10610a4b57610100808354040283529160200191610a76565b820191906000526020600020905b815481529060010190602001808311610a5957829003601f168201915b5050505050908060010154905082565b6000809054906101000a900473ffffffffffffffffffffffffffffffffffffffff1673ffffffffffffffffffffffffffffffffffffffff163373ffffffffffffffffffffffffffffffffffffffff1614610b2b576040517f08c379a000000000000000000000000000000000000000000000000000000000815260040180806020018281038252602a815260200180611ed1602a913960400191505060405180910390fd5b60006005811115610b3857fe5b600360009054906101000a900460ff166005811115610b5357fe5b14610ba9576040517f08c379a0000000000000000000000000000000000000000000000000000000008152600401808060200182810382526049815260200180611f3b6049913960600191505060405180910390fd5b6001600360006101000a81548160ff02191690836005811115610bc857fe5b02179055507f65b51a6e225dbda234ac3ca54831842456809aa60205dd84e758670106b4a6f360405160405180910390a17f35f6049c9443b4a26a314e1d724e368c56e2c3a4621979a4ab5257f70cf0222d6000600360009054906101000a900460ff1660405180836005811115610c3c57fe5b60ff168152602001826005811115610c5057fe5b60ff1681526020019250505060405180910390a1565b6000600580811115610c7457fe5b600360009054906101000a900460ff166005811115610c8f57fe5b14610ce5576040517f08c379a000000000000000000000000000000000000000000000000000000000815260040180806020018281038252603e815260200180611e5b603e913960400191505060405180910390fd5b600260045481548110610cf457fe5b906000526020600020906002020160010154905090565b606060028281548110610d1a57fe5b90600052602060002090600202016000018054600181600116156101000203166002900480601f016020809104026020016040519081016040528092919081815260200182805460018160011615610100020316600290048015610dbf5780601f10610d9457610100808354040283529160200191610dbf565b820191906000526020600020905b815481529060010190602001808311610da257829003601f168201915b50505050509050919050565b60008060009054906101000a900473ffffffffffffffffffffffffffffffffffffffff1673ffffffffffffffffffffffffffffffffffffffff168273ffffffffffffffffffffffffffffffffffffffff16149050919050565b600160003373ffffffffffffffffffffffffffffffffffffffff1673ffffffffffffffffffffffffffffffffffffffff16815260200190815260200160002060000160009054906101000a900460ff16610ec9576040517f08c379a0000000000000000000000000000000000000000000000000000000008152600401808060200182810382526038815260200180611e996038913960400191505060405180910390fd5b60016005811115610ed657fe5b600360009054906101000a900460ff166005811115610ef157fe5b14610f47576040517f08c379a00000000000000000000000000000000000000000000000000000000081526004018080602001828103825260458152602001806120066045913960600191505060405180910390fd5b600260405180604001604052808381526020016000815250908060018154018082558091505090600182039060005260206000209060020201600090919290919091506000820151816000019080519060200190610fa6929190611db5565b50602082015181600101555050507fdcd2e8cd237900037efa515c36a3caa6812766647c16535dd5fc3c6fd641154c6001600280549050036040518082815260200191505060405180910390a150565b6000600280549050905090565b6000809054906101000a900473ffffffffffffffffffffffffffffffffffffffff1673ffffffffffffffffffffffffffffffffffffffff163373ffffffffffffffffffffffffffffffffffffffff16146110a8576040517f08c379a000000000000000000000000000000000000000000000000000000000815260040180806020018281038252602a815260200180611ed1602a913960400191505060405180910390fd5b600460058111156110b557fe5b600360009054906101000a900460ff1660058111156110d057fe5b14611126576040517f08c379a0000000000000000000000000000000000000000000000000000000008152600401808060200182810382526040815260200180611efb6040913960400191505060405180910390fd5b6000809050600080905060008090505b60028054905081101561119b57826002828154811061115157fe5b906000526020600020906002020160010154111561118e576002818154811061117657fe5b90600052602060002090600202016001015492508091505b8080600101915050611136565b50806004819055506005600360006101000a81548160ff021916908360058111156111c257fe5b02179055507f2b584e1c25353effdff9a933d20980df7066f76343f1e695aad72806170da12360405160405180910390a17f35f6049c9443b4a26a314e1d724e368c56e2c3a4621979a4ab5257f70cf0222d6004600360009054906101000a900460ff166040518083600581111561123657fe5b60ff16815260200182600581111561124a57fe5b60ff1681526020019250505060405180910390a15050565b606060058081111561127057fe5b600360009054906101000a900460ff16600581111561128b57fe5b146112e1576040517f08c379a000000000000000000000000000000000000000000000000000000000815260040180806020018281038252603e815260200180611e5b603e913960400191505060405180910390fd5b6002600454815481106112f057fe5b90600052602060002090600202016000018054600181600116156101000203166002900480601f0160208091040260200160405190810160405280929190818152602001828054600181600116156101000203166002900480156113955780601f1061136a57610100808354040283529160200191611395565b820191906000526020600020905b81548152906001019060200180831161137857829003601f168201915b5050505050905090565b6000809054906101000a900473ffffffffffffffffffffffffffffffffffffffff1673ffffffffffffffffffffffffffffffffffffffff163373ffffffffffffffffffffffffffffffffffffffff1614611444576040517f08c379a000000000000000000000000000000000000000000000000000000000815260040180806020018281038252602a815260200180611ed1602a913960400191505060405180910390fd5b6000600581111561145157fe5b600360009054906101000a900460ff16600581111561146c57fe5b146114c2576040517f08c379a0000000000000000000000000000000000000000000000000000000008152600401808060200182810382526049815260200180611f3b6049913960600191505060405180910390fd5b600160008273ffffffffffffffffffffffffffffffffffffffff1673ffffffffffffffffffffffffffffffffffffffff16815260200190815260200160002060000160009054906101000a900460ff1615611585576040517f08c379a000000000000000000000000000000000000000000000000000000000815260040180806020018281038252601f8152602001807f54686520766f74657220697320616c726561647920726567697374657265640081525060200191505060405180910390fd5b60018060008373ffffffffffffffffffffffffffffffffffffffff1673ffffffffffffffffffffffffffffffffffffffff16815260200190815260200160002060000160006101000a81548160ff0219169083151502179055506000600160008373ffffffffffffffffffffffffffffffffffffffff1673ffffffffffffffffffffffffffffffffffffffff16815260200190815260200160002060000160016101000a81548160ff0219169083151502179055507fffffffffffffffffffffffffffffffffffffffffffffffffffffffffffffffff600160008373ffffffffffffffffffffffffffffffffffffffff1673ffffffffffffffffffffffffffffffffffffffff1681526020019081526020016000206001018190555050565b600360009054906101000a900460ff1681565b60016020528060005260406000206000915090508060000160009054906101000a900460ff16908060000160019054906101000a900460ff16908060010154905083565b6000809054906101000a900473ffffffffffffffffffffffffffffffffffffffff1673ffffffffffffffffffffffffffffffffffffffff163373ffffffffffffffffffffffffffffffffffffffff16146117a0576040517f08c379a000000000000000000000000000000000000000000000000000000000815260040180806020018281038252602a815260200180611ed1602a913960400191505060405180910390fd5b600360058111156117ad57fe5b600360009054906101000a900460ff1660058111156117c857fe5b1461181e576040517f08c379a0000000000000000000000000000000000000000000000000000000008152600401808060200182810382526037815260200180611f846037913960400191505060405180910390fd5b6004600360006101000a81548160ff0219169083600581111561183d57fe5b02179055507ffca8377aff3a08252b769c58e6769a534922eabaaf9952691ea9cfcaed41fbd860405160405180910390a17f35f6049c9443b4a26a314e1d724e368c56e2c3a4621979a4ab5257f70cf0222d60038060009054906101000a900460ff16604051808360058111156118b057fe5b60ff1681526020018260058111156118c457fe5b60ff1681526020019250505060405180910390a1565b6000600360009054906101000a900460ff16905090565b6000600160008373ffffffffffffffffffffffffffffffffffffffff1673ffffffffffffffffffffffffffffffffffffffff16815260200190815260200160002060000160009054906101000a900460ff169050919050565b600060058081111561195857fe5b600360009054906101000a900460ff16600581111561197357fe5b146119c9576040517f08c379a000000000000000000000000000000000000000000000000000000000815260040180806020018281038252603e815260200180611e5b603e913960400191505060405180910390fd5b600454905090565b6000809054906101000a900473ffffffffffffffffffffffffffffffffffffffff1673ffffffffffffffffffffffffffffffffffffffff163373ffffffffffffffffffffffffffffffffffffffff1614611a76576040517f08c379a000000000000000000000000000000000000000000000000000000000815260040180806020018281038252602a815260200180611ed1602a913960400191505060405180910390fd5b60016005811115611a8357fe5b600360009054906101000a900460ff166005811115611a9e57fe5b14611af4576040517f08c379a00000000000000000000000000000000000000000000000000000000081526004018080602001828103825260458152602001806120066045913960600191505060405180910390fd5b6002600360006101000a81548160ff02191690836005811115611b1357fe5b02179055507f65b51a6e225dbda234ac3ca54831842456809aa60205dd84e758670106b4a6f360405160405180910390a17f35f6049c9443b4a26a314e1d724e368c56e2c3a4621979a4ab5257f70cf0222d6001600360009054906101000a900460ff1660405180836005811115611b8757fe5b60ff168152602001826005811115611b9b57fe5b60ff1681526020019250505060405180910390a1565b6000809054906101000a900473ffffffffffffffffffffffffffffffffffffffff1673ffffffffffffffffffffffffffffffffffffffff163373ffffffffffffffffffffffffffffffffffffffff1614611c56576040517f08c379a000000000000000000000000000000000000000000000000000000000815260040180806020018281038252602a815260200180611ed1602a913960400191505060405180910390fd5b60026005811115611c6357fe5b600360009054906101000a900460ff166005811115611c7e57fe5b14611cd4576040517f08c379a000000000000000000000000000000000000000000000000000000000815260040180806020018281038252604b815260200180611fbb604b913960600191505060405180910390fd5b60038060006101000a81548160ff02191690836005811115611cf257fe5b02179055507ffca8377aff3a08252b769c58e6769a534922eabaaf9952691ea9cfcaed41fbd860405160405180910390a17f35f6049c9443b4a26a314e1d724e368c56e2c3a4621979a4ab5257f70cf0222d6002600360009054906101000a900460ff1660405180836005811115611d6657fe5b60ff168152602001826005811115611d7a57fe5b60ff1681526020019250505060405180910390a1565b6000809054906101000a900473ffffffffffffffffffffffffffffffffffffffff1681565b828054600181600116156101000203166002900490600052602060002090601f016020900481019282601f10611df657805160ff1916838001178555611e24565b82800160010185558215611e24579182015b82811115611e23578251825591602001919060010190611e08565b5b509050611e319190611e35565b5090565b611e5791905b80821115611e53576000816000905550600101611e3b565b5090565b9056fe546869732066756e6374696f6e2063616e206f6e6c792062652063616c6c656420616674657220766f7465732068617665206265656e207461696c65642e54686973206d6574686f642063616e206f6e6c792062652063616c6c656420627920746865207265676973746572656420766f746572732e546869732066756e6374696f6e2063616e206f6e6c792062652063616c6c65642062792041646d696e2e546869732066756e6374696f6e2063616e2062652063616c6c6564206f6e6c7920616674657220766f74696e672073657373696f6e2068617320656e6465642e546869732066756e6374696f6e2063616e206f6e6c792062652063616c6c6564206265666f72652070726f706f73616c20726567697374726174696f6e206861732073746172746564546869732066756e6374696f6e2063616e2062652063616c6c6564206f6e6c7920647572696e6720766f74696e672073657373696f6e2e546869732066756e6374696f6e2063616e206f6e6c792062652063616c6c6564206166746572207468652070726f706f73616c20726567697374726174696f6e2068617320656e6465642e546869732066756e6374696f6e2063616e206f6e6c792062652063616c6c656420647572696e672070726f706f73616c20726567697374726174696f6e20706572696f642ea265627a7a723158207030f8c646b500bbd5b3709a146a38d20e0eb88f17a729a411c16f6d9db11c3e64736f6c63430005100032",
  "source": "// SPDX-License-Identifier: MIT\npragma solidity >=0.4.22 <0.9.0;\n\ncontract SimpleVoting {\n    // Necessary variables initialization\n    address payable public admin;\n\n    struct Voter {\n        bool isRegistered;\n        bool hasVoted;\n        int256 votedProposalId;\n    }\n    mapping(address => Voter) public voters;\n\n    struct Proposal {\n        string description;\n        uint256 voteCount;\n    }\n    Proposal[] public proposals;\n\n    enum WorkFlowStatus {\n        RegisteringVoters,\n        ProposalsRegistrationStarted,\n        ProposalsRegistrationEnded,\n        VotingSessionStarted,\n        VotingSessionEnded,\n        VotesTallied\n    }\n    WorkFlowStatus public workFlowStatus;\n\n    uint256 private winningProposalId;\n\n    // Function Modifiers\n    modifier onlyAdmin() {\n        require(\n            msg.sender == admin,\n            \"This function can only be called by Admin.\"\n        );\n        _;\n    }\n\n    modifier onlyRegisteredVoter() {\n        require(\n            voters[msg.sender].isRegistered,\n            \"This method can only be called by the registered voters.\"\n        );\n        _;\n    }\n\n    modifier onlyDuringVotersRegistration() {\n        require(\n            workFlowStatus == WorkFlowStatus.RegisteringVoters,\n            \"This function can only be called before proposal registration has started\"\n        );\n        _;\n    }\n\n    modifier onlyDuringProposalsRegistration() {\n        require(\n            workFlowStatus == WorkFlowStatus.ProposalsRegistrationStarted,\n            \"This function can only be called during proposal registration period.\"\n        );\n        _;\n    }\n\n    modifier onlyAfterProposalRegistration {\n        require(\n            workFlowStatus == WorkFlowStatus.ProposalsRegistrationEnded,\n            \"This function can only be called after the proposal registration has ended.\"\n        );\n        _;\n    }\n\n    modifier onlyDuringVotingSession {\n        require(\n            workFlowStatus == WorkFlowStatus.VotingSessionStarted,\n            \"This function can be called only during voting session.\"\n        );\n\n        _;\n    }\n\n    modifier onlyAfterVotingSession {\n        require(\n            workFlowStatus == WorkFlowStatus.VotingSessionEnded,\n            \"This function can be called only after voting session has ended.\"\n        );\n        _;\n    }\n\n    modifier onlyAfterVotesTailed {\n        require(\n            workFlowStatus == WorkFlowStatus.VotesTallied,\n            \"This function can only be called after votes have been tailed.\"\n        );\n        _;\n    }\n\n    // Events to be fired\n\n    event VoterRegesteredEvent(address voterAddress);\n    event ProposalsRegistrationStartedEvent();\n    event ProposalRegisteredEvent(uint256 proposalId);\n    event ProposalsRegistrationEndedEvent();\n    event VotingSessionStartedEvent();\n    event VotedEvent(address voter, uint256 proposalId);\n    event VotingSessionEndedEvent();\n    event VotesTailedEvent();\n    event WorkFlowStatusChangedEvent(\n        WorkFlowStatus prevStatus,\n        WorkFlowStatus newStatus\n    );\n\n    constructor() public {\n        admin = msg.sender;\n        workFlowStatus = WorkFlowStatus.RegisteringVoters;\n    }\n\n    function registerVoter(address _voterAddress)\n        public\n        onlyAdmin\n        onlyDuringVotersRegistration\n    {\n        require(\n            !voters[_voterAddress].isRegistered,\n            \"The voter is already registered\"\n        );\n\n        voters[_voterAddress].isRegistered = true;\n        voters[_voterAddress].hasVoted = false;\n        voters[_voterAddress].votedProposalId = -1;\n    }\n\n    function startProposalRegistration()\n        public\n        onlyAdmin\n        onlyDuringVotersRegistration\n    {\n        workFlowStatus = WorkFlowStatus.ProposalsRegistrationStarted;\n\n        emit ProposalsRegistrationStartedEvent();\n        emit WorkFlowStatusChangedEvent(\n            WorkFlowStatus.RegisteringVoters,\n            workFlowStatus\n        );\n    }\n\n    function registerProposal(string memory proposalDescription)\n        public\n        onlyRegisteredVoter\n        onlyDuringProposalsRegistration\n    {\n        proposals.push(\n            Proposal({description: proposalDescription, voteCount: 0})\n        );\n\n        emit ProposalRegisteredEvent(proposals.length - 1);\n    }\n\n    function endProposalRegistration()\n        public\n        onlyAdmin\n        onlyDuringProposalsRegistration\n    {\n        workFlowStatus = WorkFlowStatus.ProposalsRegistrationEnded;\n\n        emit ProposalsRegistrationStartedEvent();\n        emit WorkFlowStatusChangedEvent(\n            WorkFlowStatus.ProposalsRegistrationStarted,\n            workFlowStatus\n        );\n    }\n\n    function startVotingSession()\n        public\n        onlyAdmin\n        onlyAfterProposalRegistration\n    {\n        workFlowStatus = WorkFlowStatus.VotingSessionStarted;\n\n        emit VotingSessionStartedEvent();\n        emit WorkFlowStatusChangedEvent(\n            WorkFlowStatus.ProposalsRegistrationEnded,\n            workFlowStatus\n        );\n    }\n\n    function vote(uint256 proposalId)\n        public\n        onlyRegisteredVoter\n        onlyDuringVotingSession\n    {\n        require(proposalId < proposals.length);\n        require(!voters[msg.sender].hasVoted, \"Already Voted from this ID\");\n\n        voters[msg.sender].hasVoted = true;\n        voters[msg.sender].votedProposalId = int256(proposalId);\n\n        proposals[proposalId].voteCount += 1;\n\n        emit VotedEvent(msg.sender, proposalId);\n    }\n\n    function endVotingSession() public onlyAdmin onlyDuringVotingSession {\n        workFlowStatus = WorkFlowStatus.VotingSessionEnded;\n\n        emit VotingSessionStartedEvent();\n        emit WorkFlowStatusChangedEvent(\n            WorkFlowStatus.VotingSessionStarted,\n            workFlowStatus\n        );\n    }\n\n    function tallyVotes() public onlyAdmin onlyAfterVotingSession {\n        uint256 winningVoteCount = 0;\n        uint256 winningProposalIndex = 0;\n\n        for (uint256 i = 0; i < proposals.length; i++) {\n            if (proposals[i].voteCount > winningVoteCount) {\n                winningVoteCount = proposals[i].voteCount;\n                winningProposalIndex = i;\n            }\n        }\n\n        winningProposalId = winningProposalIndex;\n        workFlowStatus = WorkFlowStatus.VotesTallied;\n\n        emit VotesTailedEvent();\n        emit WorkFlowStatusChangedEvent(\n            WorkFlowStatus.VotingSessionEnded,\n            workFlowStatus\n        );\n    }\n\n    function getNumberOfProposals() public view returns (uint256) {\n        return proposals.length;\n    }\n\n    function getProposalDescription(uint256 index)\n        public\n        view\n        returns (string memory)\n    {\n        return proposals[index].description;\n    }\n\n    function getWinningProposalId()\n        public\n        view\n        onlyAfterVotesTailed\n        returns (uint256)\n    {\n        return winningProposalId;\n    }\n\n    function getWinningProposalDescription()\n        public\n        view\n        onlyAfterVotesTailed\n        returns (string memory)\n    {\n        return proposals[winningProposalId].description;\n    }\n\n    function getWinningProposalVoteCounts()\n        public\n        view\n        onlyAfterVotesTailed\n        returns (uint256)\n    {\n        return uint256(proposals[winningProposalId].voteCount);\n    }\n\n    function isRegisteredVoter(address _voterAddress)\n        public\n        view\n        returns (bool)\n    {\n        return voters[_voterAddress].isRegistered;\n    }\n\n    function isAdmin(address _address) public view returns (bool) {\n        return _address == admin;\n    }\n\n    function getWorkFlowStatus() public view returns (WorkFlowStatus) {\n        return workFlowStatus;\n    }\n}\n",
  "sourcePath": "D:/Porgrams/Blockchain/SimpleVoting/contracts/SimpleVoting.sol",
  "compiler": {
    "name": "solc",
    "version": "0.5.16+commit.9c3226ce.Emscripten.clang"
  },
  "schemaVersion": "3.4.1",
  "updatedAt": "2021-06-08T06:22:58.275Z",
  "devdoc": {
    "methods": {}
  },
  "userdoc": {
    "methods": {}
  }
}